:020000040800F2
:10000000E00D002091010008EB0F00084F0F0008E1
:10001000E90F0008EF040008791100080000000053
:10002000000000000000000000000000EF0F0008CA
:10003000F104000800000000ED0F0008F10F0008B7
:10004000AB010008AB010008AB010008AB010008E0
:10005000AB010008AB010008AB010008AB010008D0
:10006000AB010008AB010008AB010008AB010008C0
:10007000AB010008AB010008AB010008AB010008B0
:10008000AB010008AB010008AB010008AB010008A0
:10009000AB010008AB010008AB010008AB01000890
:1000A000AB010008AB010008AB010008AB01000880
:1000B000AB010008AB010008AB010008AB01000870
:1000C000AB010008AB010008AB010008AB01000860
:1000D000AB010008AB010008AB010008AB01000850
:1000E000AB010008AB010008AB01000800F002F80A
:1000F00000F03FF80AA090E8000C82448344AAF183
:100100000107DA4501D100F034F8AFF2090EBAE880
:100110000F0013F0010F18BFFB1A43F0010318473B
:100120003C1A00005C1A0000103A24BF78C878C15D
:10013000FAD8520724BF30C830C144BF04680C60ED
:10014000704700000023002400250026103A28BF35
:1001500078C1FBD8520728BF30C148BF0B60704739
:10016000642900F07D80002070471FB51FBD10B5C9
:1001700010BD00F082F91146FFF7F7FF01F00EF80D
:1001800000F0A0F903B4FFF7F2FF03BC00F0A8F9F8
:100190000948804709480047FEE7FEE7FEE7FEE71B
:1001A000FEE7FEE7FEE7FEE7FEE7FEE70448054957
:1001B000054A064B7047000045100008ED00000896
:1001C000E0070020E00D0020E0090020E009002009
:1001D0000FB41CB5074B06AA7B44694600900598EE
:1001E00000F033F90020694600F042F91CBC5DF8CC
:1001F00014FB0000950200002DE9F0410E46044674
:10020000002020622046E168884730B3252805D0C9
:10021000D4E901219047206A401CF2E7E1682046BA
:1002200000278847050018D0A5F14100192802D8F9
:1002300020354FF400673246294620462760FFF7F5
:100240008FFF40B1012804D0F61D26F007060836BE
:10025000D8E7361DD6E72846DAE7206ABDE8F08100
:100260002DE9F0410646002410687529314616A58F
:1002700010D0AFF30080002802DA404213A507E057
:1002800031688A0701D512A502E0490704D511A5F6
:10029000012401E0AFF3008000210A2206F12407C7
:1002A00009E0B0FBF2FCB0FBF2F302FB1C003030C3
:1002B00078541846491C0028F3D123462A46304674
:1002C000BDE8F04100F063B8000000002D00000020
:1002D0002B0000002000000030B505460B462A46E2
:1002E00013F8014B12F8010B08B1A042F8D01CB171
:1002F000002802D06D1CF1E7284630BD10B5431C24
:1003000002E010F8011B71B18107FAD14FF0013200
:1003100002C88C1A8C4314EAC211F9D0C01A0A061A
:1003200003D0C01E10BDC01A10BD0A0401D0801E2B
:1003300010BD0902FCD0401E10BD4FF0000200B5F8
:10034000134694469646203922BFA0E80C50A0E8F8
:100350000C50B1F12001BFF4F7AF090728BFA0E8A6
:100360000C5048BF0CC05DF804EB890028BF40F872
:10037000042B08BF704748BF20F8022B11F0804FB4
:1003800018BF00F8012B70477047704770472DE980
:10039000F0470D4699469246044600F1240801684C
:1003A000880604D5E06921F01001216000E00120F9
:1003B000A84201DD471B00E00027A1697A1902EB82
:1003C0000900081AA0612078C00602D42046AFF3C5
:1003D0000080002608E0D4E901211AF806009047C1
:1003E000206A401C761C20624E45F4DB2078C00653
:1003F0000AD52046AFF3008006E0D4E90121302081
:100400009047206A401C2062381EA7F10107F4DCE7
:1004100007E0D4E9012118F805009047206A401C44
:100420002062281EA5F10105F3DC2046AFF3008011
:100430002078000602D50220BDE8F0870120FBE706
:1004400001694A1C02610878704700B58FB0CDE998
:1004500001310021059105497944CDE90310114688
:100460006846FFF7C9FE0FB000BD0000E5FFFFFFC3
:100470000A6802F8010B0A607047754600F02CF814
:10048000AE4605006946534620F00700854618B081
:1004900020B5FFF78BFEBDE820404FF000064FF07F
:1004A00000074FF000084FF0000B21F00701AC46A9
:1004B000ACE8C009ACE8C009ACE8C009ACE8C009C8
:1004C0008D46704710B50446AFF300802046BDE866
:1004D0001040FFF757BE000000487047800700201B
:1004E00001491820ABBEFEE7260002007047FEE778
:1004F0007047000070B5044600F004F90546601C22
:1005000002D004480078044400F0FCF8401BA042EC
:10051000FAD370BD100000202DE9F84FDFF8B89134
:100520000024A9F1040B23460F2709F1040AABF1BB
:10053000040EC9E00125A5402A40AA427DD1674E9C
:10054000D1F804C0ACEB0608B44532D014DCBCF1E1
:10055000030F3AD009DCBCF1000F2AD0BCF1010F27
:100560001CD0BCF1020F31D11DE0BCF1110F17D02E
:10057000BCF1120F2AD119E0B8F5881F19D006DC9A
:10058000B8F5803F15D0B8F5801F1FD111E0B8F540
:10059000001F0ED0B8F5041F18D10AE0CB6815E093
:1005A000CB681B1D12E0CB6808330FE0CB680C331F
:1005B0000CE08B682BB1012B4FF0080303D0456191
:1005C00004E0042302E0056100E00023FF2A01D8D3
:1005D000064601E000F104064FEA840501D9A5F1C1
:1005E0002005D6F8008007FA05FC28EA0C0803FA73
:1005F00005F548EA0508C6F800804D68ED0062D5AB
:10060000374DAE6946F00106AE61AD6924F00306D0
:1006100005F001050095334D06EB050CDCF808509C
:10062000A607360F07FA06F825EA0805DFF8B880AE
:10063000404503D14FF0000817E044E0DFF8AC80FC
:10064000404502D14FF001080FE0DFF8A48040459B
:1006500002D14FF0020808E0DFF89880404502D14F
:100660004FF0030801E04FF0040808FA06F848EAE2
:100670000508CCF808804D68D9F80060ED024D46B9
:1006800001D5164300E096432E604D68DAF800600D
:10069000AD02554601D5164300E096432E604D68E5
:1006A000DBF80060AD035D4601D5164300E09643DC
:1006B0002E604D68DEF80060ED03754601D51643E7
:1006C00000E096432E60641C0D682A46E5407FF4E6
:1006D00031AFBDE8F88F00000804014000001110A0
:1006E000001002400000014000080140000C0140E1
:1006F00000100140001401400AB101617047090473
:10070000FBE70000014880687047000010000020EF
:10071000024881680278114481607047100000200F
:10072000074810B5016841F010010160032000F096
:1007300067F80F2000F006F800F024F8002010BD44
:100740000020024070B50D4D04464FF47A712878B0
:10075000B1FBF0F00A490968B1FBF0F000F0CEFA05
:1007600048B9102C07D200222146501E00F028F86C
:1007700000206C6070BD012070BD000010000020E2
:100780001C0000200C4808B5816941F0010181611D
:10079000816901F001010091C16941F08051C1619D
:1007A000C06900F0805000900448416821F0E06189
:1007B00041F00071416008BD00100240000001409E
:1007C000F0B40E4B1B680C46C3F30223C3F10705BC
:1007D000042D00D90425191D072901D2002300E0AA
:1007E000DB1E012606FA05F1491E214099409E4074
:1007F000761E16403143F0BC00F0BFBC0CED00E0AB
:10080000064900F0070208684FF6FF03184040EA67
:100810000220034A10430860704700000CED00E01E
:100820000000FA052DE9F0470F46050061D0434E60
:10083000306800F00700B84209D2306820F00700A5
:1008400038433060306800F00700B84251D1286862
:100850003B4C810712D5400703D5606840F4E06047
:1008600060602878000703D5606840F460506060DD
:100870006068A96820F0F000084360602878C0072D
:1008800028D06868012810D02168022810D0890774
:1008900000292EDA616821F0030101436160FFF74E
:1008A00031FF804641F288390DE021688903EFE786
:1008B0008901EDE7FFF726FFA0EB0801494502D9C2
:1008C0000320BDE8F0876068696800F00C00B0EBB9
:1008D000810FEFD1306800F00700B8420BD93068C3
:1008E00020F0070038433060306800F00700B8425D
:1008F00001D00120E5E72878400705D56068E96860
:1009000020F4E060084360602878000706D560683E
:10091000296920F4605040EAC100606000F038F8B6
:100920006168084AC1F30311515CC8400649086078
:1009300006480068FFF706FF0020C2E700200240DB
:1009400000100240BE1700081C0000201400002008
:100950000448054900684968044AC1F30221515C12
:10096000C84070471C00002000100240CE1700084D
:100970000448054900684968044AC1F3C221515C32
:10098000C84070471C00002000100240CE1700082D
:100990000E4A51680E4801F00C03042B11D0082BAD
:1009A0000FD10C48C1F38343C903C05C0AD5516819
:1009B000084AC1F34041921E515C054A5043B0FBC6
:1009C000F1F07047044948437047000000100240AE
:1009D00000127A00AE17000800093D002DE9F84F1B
:1009E000040070D02078C04DC00749D06868C0F3BB
:1009F0008100012807D06868C0F38100022809D16E
:100A00006868C00306D52868800339D56068002867
:100A1000E7D035E06068B0F5803F0BD010B1B0F59D
:100A2000A02F11D0286820F480302860286820F496
:100A3000802002E0286840F480302860606890B12F
:100A4000FFF760FE06460AE0286840F48020286030
:100A5000F0E700BFFFF756FE801B642873D82868B4
:100A60008003F7D50CE0FFF74DFE064605E000BF1A
:100A7000FFF748FE801B6428F0D828688003F7D46D
:100A800020789A4E80074FF001094FF0000839D5C1
:100A9000686810F00C0F07D06868C0F38100022866
:100AA00009D16868C00306D42868800714D5206976
:100AB000012808D110E02069B0B1C6F80090FFF716
:100AC00021FE074605E00AE1FFF71CFEC01B0228D5
:100AD000C4D828688007F7D52868616920F0F80035
:100AE00040EAC10028600DE0C6F80080FFF70AFE6A
:100AF000074604E0FFF706FEC01B022823D828683B
:100B00008007F7D4207800072CD57948A169D9B19E
:100B1000C0F80090FFF7F6FD074604E0FFF7F2FD8E
:100B2000C01B02280FD8686A8007F7D571484FF4B8
:100B3000FA510068B0FBF1F0009000BF0098411E30
:100B40000091FAD20EE080E0C0F80080FFF7DAFDF5
:100B5000074604E0FFF7D6FDC01B022875D8686A77
:100B60008007F7D42078400760D5E8690027C000E7
:100B700008D4E86940F08050E861E869012700F096
:100B8000805000905C480168C90513D40168834611
:100B900041F480710160FFF7B5FD824606E000BFB9
:100BA000FFF7B0FDA0EB0A0064284ED8DBF8000088
:100BB000C005F5D5E06801280AD008B1052813D092
:100BC000286A20F001002862286A20F0040002E070
:100BD000286A40F001002862E06841F2883B98B141
:100BE000FFF790FD82460BE0286A40F0040028627F
:100BF000EEE700BFFFF786FDA0EB0A0159455AD882
:100C0000286A8007F6D50CE0FFF77CFD824605E0F8
:100C1000FFF778FDA0EB0A0159454CD8286A8007F8
:100C2000F6D41FB1E86920F08050E861E06988B32C
:100C30006968C1F38101022944D00228C6F86080A6
:100C400004D0FFF75FFD044638E034E0FFF75AFDBB
:100C5000074604E0FFF756FDC01B02282BD8286882
:100C60008001F7D4206AB0F5803F05D16868A1689B
:100C700020F4003008436860D4E90801084369683B
:100C800021F4741108436860C6F86090FFF73AFDDC
:100C9000044606E025E000BFFFF734FD001B0228F4
:100CA00009D828688001F7D51BE000BFFFF72AFDAF
:100CB000001B022802D90320BDE8F88F28688001B4
:100CC000F4D40EE00128F7D06868226A00F480317D
:100CD000914204D1616A00F47010884201D0012071
:100CE000EAE70020E8E7000000100240000042426E
:100CF000800442421C0000200070004010B5401EDD
:100D0000B0F1807F01D3012010BD4FF0E02460617D
:100D10000F21601700F031FA0020A0610720206148
:100D2000002010BD70B5040004D094F841000025E7
:100D300010B106E0012070BD84F84050204600F05C
:100D400023F8242084F841002068C16821F4005170
:100D5000C160204600F078F92068016921F49041D3
:100D600001612068416921F02A0141612068C16860
:100D700041F40051C1606564202084F8410084F88A
:100D800042006563002070BD30B585B0002400943A
:100D90000194029403940068174988422AD11748A5
:100DA000816941F480418161816901F4804104914C
:100DB000816941F0080181618069114D00F00800EE
:100DC0000490402000900220019003200390694687
:100DD0002846FFF7A1FB8020CDE90004694628469C
:100DE0000294FFF799FB0748416841F0E06141F048
:100DF0000401416005B030BD0038014000100240E0
:100E0000000C0140000001402DE9F843044690F831
:100E10004200994616460D46202802D00220BDE821
:100E2000F883ADB1A6B100206064222184F842109D
:100E30002063FFF767FCA6858046E685A0684FF42F
:100E40008057B84201D1206920B12E46002526E006
:100E50000120E4E7002622E043460022202120462C
:100E6000CDF8009000F04CF908B10320D7E726B187
:100E7000A068B8421BD038B108E020684068C0F3D1
:100E8000080025F8020B07E0206980B1206840685F
:100E900000F07F0006F8010BE08D401EE085E08D3C
:100EA0000028D9D1202084F842000020B7E720682C
:100EB0004068EFE72DE9F843044690F841001F46EB
:100EC00016460D46202802D00220BDE8F8837DB1E9
:100ED00076B100206064212084F84100FFF712FC05
:100EE000A6848046E684A068B0F5805F02D003E067
:100EF0000120EAE7206910B12E4600250EE0002609
:100F00000CE08021204600F0FBF8A0B9AEB116F845
:100F1000010B21684860E08C401EE084E08C434671
:100F20004FF0000200970028EBD14FF0400120461F
:100F300000F0E6F830B10320C7E735F8020BC0F344
:100F40000800E6E7202084F841000020BDE7FEE726
:100F50002DE9F04186B000242048009401940294C9
:100F60000394816941F010018161816901F01001F0
:100F70000491816941F004018161816901F00401FA
:100F80000491816941F0080181618069144F00F08A
:100F900008004FF400550490002229463846FFF718
:100FA000ABFBDFF84080002201214046FFF7A4FBA5
:100FB0000095022601250396CDE90154694638467D
:100FC000FFF7AAFA03960095CDE901546946404619
:100FD000FFF7A2FA06B0BDE8F08100000010024061
:100FE0000010014000080140FEE7FEE7704770472F
:100FF000FFF78EBB10B590B028216846FFF79DF92A
:1010000014210AA8FFF799F902200090012004900A
:1010100010200024059007946846FFF7DFFC08B114
:1010200072B6FEE70F20CDE90A040C940D9400215E
:101030000AA80E94FFF7F6FB002801D072B6FEE76F
:1010400010B010BD7047000070B50446006801691B
:10105000E26821F44051114301612169A06808430D
:10106000616908432168CA6841F20C639A430243EC
:10107000CA6020684169A26921F44071114341614D
:101080001E492068884202D1FFF772FC01E0FFF799
:101090005FFC00EBC00101EB00126068642180007E
:1010A000B2FBF0F3B3FBF1F36FF018067343B2FB3E
:1010B000F0F5B2FBF0F605EB8305322303EB0515E3
:1010C000B5FBF1F5B6FBF1F605F0F00505EB0615FD
:1010D000B2FBF0F6B2FBF0F0B0FBF1F06FF01802EB
:1010E000504306EB800003EB0010B0FBF1F02168E9
:1010F00000F00F002844886070BD000000380140F7
:101100002DE9F041984617460E460446069D27E015
:10111000681C25D02DB1FFF7F5FAA0EB0800A84216
:101120001ED920680C3050E8001F21F4D07140E82F
:101130000012002AF5D12068143050E8001F21F079
:10114000010140E80012002AF5D1202084F8410076
:1011500084F84200002084F840000320BDE8F081BC
:101160002068006836EA000004D00020B842CFD0E2
:101170000020F3E70120F9E7FEE70907090E002840
:1011800004DB00F1E02080F80014704700F00F004D
:1011900000F1E02080F8141D704700001CB5FFF737
:1011A000BFFAFFF727FFFFF7D3FEFF48FD490025F1
:1011B00001604FF4E131C0E901150C21C560C0E9BF
:1011C00004518561C561FFF7ADFD08B172B6FEE758
:1011D000F548F6498830FEF7FBFFF549F548FEF77C
:1011E000F7FFF448F4496430FEF7F2FFF148F3A149
:1011F000C830FEF7EDFFEC488830FFF77FF8074670
:10120000EC48FFF77BF80190EA486430FFF776F886
:101210000090E848C830FFF771F80646E248EBA1B5
:101220004830FEF7D5FF4FF400742146EA48FFF737
:1012300084F8DD484830FFF761F8DB4982B24FF4AB
:101240007A7843464831D848FFF734FE6423224673
:10125000E149D548FFF7D8FD4FF4FA794846FFF742
:1012600049F9DE48AA464FF0010B05704546804615
:10127000CD48DBA14830FEF7ABFF2146D648FFF74B
:101280005CF8C9484830FFF739F8C74982B22B46A5
:101290004831C548FFF70EFE2B462246CE49C248CC
:1012A000FFF7B2FDD3A1CC48FFF716F808B188F8D4
:1012B00000B04846FFF71EF998F800000028D7D084
:1012C00088F800A0B848CCA14830FEF781FF21463D
:1012D000C148FFF732F8B4484830FFF70FF8B24979
:1012E00082B22B464831B048FFF7E4FD2B46224638
:1012F000B949AD48FFF788FDBEA1B748FEF7ECFF3E
:1013000008B188F800B04846FFF7F4F898F80000F4
:101310000028D7D0002188F80010DA46A248C0A1E2
:101320004830FEF755FF2146AB48FFF706F89E48C8
:101330004830FEF7E3FF9C4982B22B4648319A4879
:10134000FFF7B8FD2B462246A3499748FFF75CFDFF
:10135000A8A1A148FEF7C0FF08B188F800A0484640
:10136000FFF7C8F898F800000028D7D0002188F8C7
:101370000010D3468C48B2A14830FEF729FF214621
:101380009548FEF7DAFF88484830FEF7B7FF8649F0
:1013900082B22B4648318448FFF78CFD2B4622460B
:1013A0008D498148FFF730FD92A18B48FEF794FFED
:1013B00008B188F800B04846FFF79CF898F800009C
:1013C0000028D7D04FF00009DA4688F800904FF097
:1013D000640B75489EA14830FEF7FAFE21467E4810
:1013E000FEF7ABFF70484830FEF788FF6E4982B2C7
:1013F0002B4648316C48FFF75DFD2B462246764967
:101400006948FFF701FD7BA17348FEF765FF08B14E
:1014100088F800A04FF4FA70FFF76CF898F8000015
:101420000028D6D021466C48FEF787FF2B4622467F
:1014300069495D48FFF7E8FC8AA16748FEF74CFF61
:1014400010B1C8F8089035E088A16348FEF744FF62
:1014500010B1C8F808A02DE086A15F48FEF73CFF58
:1014600008B1022021E085A15B48FEF735FF08B1F5
:1014700003201AE083A15848FEF72EFF08B104208C
:1014800013E082A15448FEF727FF08B105200CE0C5
:1014900080A15148FEF720FF08B1062005E07FA19A
:1014A0004D48FEF719FF18B10720C8F8080001E001
:1014B000C8F808B07BA14848FEF70EFF10B1C8F885
:1014C0000C900BE07BA14448FEF706FF10B1C8F872
:1014D0000CA003E0D8F80400C8F80C00D8F8080005
:1014E00008289FDAD8F80C00012859D0002899D193
:1014F00000224FF400517348FFF7FEF8C8F804903B
:10150000019871A1384483192748D8F80820483039
:10151000FEF75EFE21463048FEF70FFF22484830B6
:10152000FEF7ECFE204982B22B4648311E48FFF7F9
:10153000C1FC6423224628491B48FFF765FC67A1CC
:101540002548FEF7C9FEF0B121462348FEF7F5FE17
:101550001549BAB22B4688311348FFF7ABFC019806
:10156000144982B22B461048FFF7A4FC1149B2B2CD
:101570002B46C8310C48FFF79DFC642322461649D0
:101580000948FFF741FC084855A14830D8F8082021
:10159000FEF71EFE21461048FEF7CFFE0248A9E0E6
:1015A000BCE000000038014020020020D8170008ED
:1015B000B41A0008A8060020081B00083C2F626F20
:1015C00064793E3C2F68746D6C3E000041542B5290
:1015D00053540D0A000000002000002000000020ED
:1015E00041542B43574D4F44455F4355523D320DB7
:1015F0000A0000004F4B000041542B435753415009
:101600005F4355523D2253544D3332222C22313206
:10161000333435363738222C312C330D0A00000094
:1016200041542B43495041505F4355523D2231397B
:10163000322E3136382E35312E31220D0A0000007F
:1016400041542B4349504D55583D310D0A0000007F
:1016500041542B4349505345525645523D312C3845
:10166000300D0A002B4950442C3000002B495044C7
:101670002C3100002B4950442C3200002B4950449F
:101680002C3300002B4950442C3400002B4950448B
:101690002C3500002B4950442C3600002B49504477
:1016A0002C370000474554202F6C696768746F6EB3
:1016B00000000000474554202F6C696768746F660E
:1016C000660000000010014041542B43495053452F
:1016D0004E443D25642C25640D0A00003E000000A8
:1016E00041542B434950434C4F53453D25640D0A0B
:1016F000000000004830FEF701FE284982B22B4668
:10170000A1F14800FFF7D6FB25496423224601F5E5
:101710000070FFF779FBC8F808B083E60122510397
:101720002048FEF7E9FFC8F804A000983844831960
:10173000AFF26C011948D8F80820FEF749FD2146A0
:101740001748FEF7FAFD1548FEF7D8FD134982B297
:101750002B46A1F14800FFF7ADFB11496423224657
:1017600001F50070FFF750FBAFF290010C48FEF757
:10177000B3FD00283FF407AF21460948FEF7DDFD21
:101780000649BAB240312B46A1F18800FFF792FB1F
:1017900000982B4682B20449E5E60000680200206A
:1017A00020000020001001400C070020010202036D
:1017B0000405060708090A0B0C0D0E0F1010000097
:1017C00000000000000001020304060708090000F1
:1017D00000000102030400003C21444F43545950CF
:1017E000452068746D6C3E3C68746D6C3E0A3C68C4
:1017F0006561643E0A20203C7469746C653E5354F4
:101800004D3332202D20455350383236363C2F741C
:1018100069746C653E0A3C6C696E6B206872656623
:101820003D22646174613A696D6167652F782D6945
:10183000636F6E3B6261736536342C202041222039
:1018400072656C3D2269636F6E2220747970653D0C
:1018500022696D6167652F782D69636F6E223E3C4A
:101860007374796C653E0A68746D6C207B2020640B
:101870006973706C61793A20696E6C696E652D626E
:101880006C6F636B3B206D617267696E3A203070DC
:1018900078206175746F3B20746578742D616C6974
:1018A000676E3A2063656E7465723B7D0A20206224
:1018B0006F64797B6D617267696E2D746F703A2009
:1018C000353070783B7D0A2E627574746F6E207BA4
:1018D000646973706C61793A20626C6F636B3B0A68
:1018E000202077696474683A20373070783B0A6248
:1018F00061636B67726F756E642D636F6C6F723AA4
:1019000020233030383030303B0A626F72646572A9
:101910003A206E6F6E653B0A636F6C6F723A207788
:10192000686974653B0A202070616464696E673A77
:10193000203134707820323870783B0A74657874BE
:101940002D6465636F726174696F6E3A206E6F6E9D
:10195000653B0A666F6E742D73697A653A2032347E
:1019600070783B0A20206D617267696E3A20307092
:1019700078206175746F20333670783B200A626F6F
:10198000726465722D7261646975733A203570787E
:101990003B7D0A20202E627574746F6E2D6F6E2051
:1019A0007B6261636B67726F756E642D636F6C6FC2
:1019B000723A20233030383030303B7D0A2E627549
:1019C00074746F6E2D6F6E3A616374697665202052
:1019D0007B6261636B67726F756E642D636F6C6F92
:1019E000723A20233030383030303B7D0A2E627519
:1019F00074746F6E2D6F6666207B6261636B6772B5
:101A00006F756E642D636F6C6F723A2023383038B7
:101A10003038303B7D0A20202E627574746F6E2D35
:101A20006F66663A616374697665207B6261636B99
:101A300067726F756E642D636F6C6F723A20233816
:101A400030383038303B7D0A202070207B666F6E46
:101A5000742D73697A653A20313470783B636F6C0A
:101A60006F723A20233830383038303B6D617267FE
:101A7000696E2D626F74746F6D3A20323070783BEE
:101A80007D0A20203C2F7374796C653E3C2F68657D
:101A900061643E0A3C626F64793E0A3C68313E53A1
:101AA000544D3332202D20455350383236363C2F9A
:101AB00068313E003C703E4C696768742069732051
:101AC00063757272656E746C79206F6E20203C2F86
:101AD000703E3C6120636C6173733D226275747467
:101AE0006F6E20627574746F6E2D6F66662220684B
:101AF0007265663D222F6C696768746F6666223E68
:101B00004F46463C2F613E003C703E4C696768740E
:101B10002069732063757272656E746C79206F66CC
:101B20006620203C2F703E3C6120636C6173733DE6
:101B300022627574746F6E20627574746F6E2D6F8F
:101B40006E2220687265663D222F6C696768746F2B
:101B50006E223E4F4E3C2F613E0000007C1B000871
:101B60000000002020000000280100089C1B000845
:101B700020000020C00D000044010008000000000B
:101B80000100000000000000000000000100000053
:0C1B900010000000000000000024F40021
:04000005080000ED02
:00000001FF
